{
  "contractName": "FansOnlyCoin",
  "abi": [
    {
      "anonymous": false,
      "inputs": [
        {
          "indexed": true,
          "internalType": "address",
          "name": "owner",
          "type": "address"
        },
        {
          "indexed": true,
          "internalType": "address",
          "name": "spender",
          "type": "address"
        },
        {
          "indexed": false,
          "internalType": "uint256",
          "name": "value",
          "type": "uint256"
        }
      ],
      "name": "Approval",
      "type": "event"
    },
    {
      "anonymous": false,
      "inputs": [
        {
          "indexed": true,
          "internalType": "address",
          "name": "_from",
          "type": "address"
        },
        {
          "indexed": true,
          "internalType": "address",
          "name": "_to",
          "type": "address"
        }
      ],
      "name": "ChangeManager",
      "type": "event"
    },
    {
      "anonymous": false,
      "inputs": [
        {
          "indexed": true,
          "internalType": "address",
          "name": "_from",
          "type": "address"
        },
        {
          "indexed": true,
          "internalType": "address",
          "name": "_to",
          "type": "address"
        }
      ],
      "name": "ChangeOwner",
      "type": "event"
    },
    {
      "anonymous": false,
      "inputs": [
        {
          "indexed": true,
          "internalType": "address",
          "name": "from",
          "type": "address"
        },
        {
          "indexed": true,
          "internalType": "address",
          "name": "to",
          "type": "address"
        },
        {
          "indexed": false,
          "internalType": "uint256",
          "name": "value",
          "type": "uint256"
        }
      ],
      "name": "Transfer",
      "type": "event"
    },
    {
      "inputs": [],
      "name": "manager",
      "outputs": [
        {
          "internalType": "address",
          "name": "",
          "type": "address"
        }
      ],
      "stateMutability": "view",
      "type": "function",
      "constant": true
    },
    {
      "inputs": [],
      "name": "owner",
      "outputs": [
        {
          "internalType": "address",
          "name": "",
          "type": "address"
        }
      ],
      "stateMutability": "view",
      "type": "function",
      "constant": true
    },
    {
      "inputs": [
        {
          "internalType": "address",
          "name": "to",
          "type": "address"
        }
      ],
      "name": "setOwner",
      "outputs": [],
      "stateMutability": "nonpayable",
      "type": "function"
    },
    {
      "inputs": [
        {
          "internalType": "address",
          "name": "_to",
          "type": "address"
        }
      ],
      "name": "transferManager",
      "outputs": [],
      "stateMutability": "nonpayable",
      "type": "function"
    },
    {
      "inputs": [
        {
          "internalType": "address",
          "name": "_to",
          "type": "address"
        }
      ],
      "name": "transferOwnership",
      "outputs": [],
      "stateMutability": "nonpayable",
      "type": "function"
    },
    {
      "inputs": [],
      "name": "constructor1",
      "outputs": [],
      "stateMutability": "nonpayable",
      "type": "function"
    },
    {
      "inputs": [],
      "name": "name",
      "outputs": [
        {
          "internalType": "string",
          "name": "",
          "type": "string"
        }
      ],
      "stateMutability": "view",
      "type": "function",
      "constant": true
    },
    {
      "inputs": [],
      "name": "symbol",
      "outputs": [
        {
          "internalType": "string",
          "name": "",
          "type": "string"
        }
      ],
      "stateMutability": "view",
      "type": "function",
      "constant": true
    },
    {
      "inputs": [],
      "name": "decimals",
      "outputs": [
        {
          "internalType": "uint8",
          "name": "",
          "type": "uint8"
        }
      ],
      "stateMutability": "view",
      "type": "function",
      "constant": true
    },
    {
      "inputs": [],
      "name": "totalSupply",
      "outputs": [
        {
          "internalType": "uint256",
          "name": "",
          "type": "uint256"
        }
      ],
      "stateMutability": "view",
      "type": "function",
      "constant": true
    },
    {
      "inputs": [
        {
          "internalType": "address",
          "name": "account",
          "type": "address"
        }
      ],
      "name": "balanceOf",
      "outputs": [
        {
          "internalType": "uint256",
          "name": "",
          "type": "uint256"
        }
      ],
      "stateMutability": "view",
      "type": "function",
      "constant": true
    },
    {
      "inputs": [
        {
          "internalType": "address",
          "name": "recipient",
          "type": "address"
        },
        {
          "internalType": "uint256",
          "name": "amount",
          "type": "uint256"
        }
      ],
      "name": "transfer",
      "outputs": [
        {
          "internalType": "bool",
          "name": "",
          "type": "bool"
        }
      ],
      "stateMutability": "nonpayable",
      "type": "function"
    },
    {
      "inputs": [
        {
          "internalType": "address",
          "name": "owner",
          "type": "address"
        },
        {
          "internalType": "address",
          "name": "spender",
          "type": "address"
        }
      ],
      "name": "allowance",
      "outputs": [
        {
          "internalType": "uint256",
          "name": "",
          "type": "uint256"
        }
      ],
      "stateMutability": "view",
      "type": "function",
      "constant": true
    },
    {
      "inputs": [
        {
          "internalType": "address",
          "name": "spender",
          "type": "address"
        },
        {
          "internalType": "uint256",
          "name": "amount",
          "type": "uint256"
        }
      ],
      "name": "approve",
      "outputs": [
        {
          "internalType": "bool",
          "name": "",
          "type": "bool"
        }
      ],
      "stateMutability": "nonpayable",
      "type": "function"
    },
    {
      "inputs": [
        {
          "internalType": "address",
          "name": "sender",
          "type": "address"
        },
        {
          "internalType": "address",
          "name": "recipient",
          "type": "address"
        },
        {
          "internalType": "uint256",
          "name": "amount",
          "type": "uint256"
        }
      ],
      "name": "transferFrom",
      "outputs": [
        {
          "internalType": "bool",
          "name": "",
          "type": "bool"
        }
      ],
      "stateMutability": "nonpayable",
      "type": "function"
    },
    {
      "inputs": [
        {
          "internalType": "address",
          "name": "spender",
          "type": "address"
        },
        {
          "internalType": "uint256",
          "name": "addedValue",
          "type": "uint256"
        }
      ],
      "name": "increaseAllowance",
      "outputs": [
        {
          "internalType": "bool",
          "name": "",
          "type": "bool"
        }
      ],
      "stateMutability": "nonpayable",
      "type": "function"
    },
    {
      "inputs": [
        {
          "internalType": "address",
          "name": "spender",
          "type": "address"
        },
        {
          "internalType": "uint256",
          "name": "subtractedValue",
          "type": "uint256"
        }
      ],
      "name": "decreaseAllowance",
      "outputs": [
        {
          "internalType": "bool",
          "name": "",
          "type": "bool"
        }
      ],
      "stateMutability": "nonpayable",
      "type": "function"
    }
  ],
  "bytecode": "0x608060405234801561001057600080fd5b50611d23806100206000396000f3fe608060405234801561001057600080fd5b506004361061010b5760003560e01c8063481c6a75116100a2578063a457c2d711610071578063a457c2d7146102aa578063a9059cbb146102da578063ba0e930a1461030a578063dd62ed3e14610326578063f2fde38b146103565761010b565b8063481c6a751461022057806370a082311461023e5780638da5cb5b1461026e57806395d89b411461028c5761010b565b806323b872dd116100de57806323b872dd14610198578063313ce567146101c857806339509351146101e6578063473be604146102165761010b565b806306fdde0314610110578063095ea7b31461012e57806313af40351461015e57806318160ddd1461017a575b600080fd5b610118610372565b604051610125919061170b565b60405180910390f35b610148600480360381019061014391906114e9565b610404565b60405161015591906116f0565b60405180910390f35b61017860048036038101906101739190611435565b61041b565b005b6101826104ed565b60405161018f919061184d565b60405180910390f35b6101b260048036038101906101ad919061149a565b6104f7565b6040516101bf91906116f0565b60405180910390f35b6101d06105e1565b6040516101dd9190611868565b60405180910390f35b61020060048036038101906101fb91906114e9565b6105f8565b60405161020d91906116f0565b60405180910390f35b61021e610696565b005b61022861080d565b60405161023591906116d5565b60405180910390f35b61025860048036038101906102539190611435565b610833565b604051610265919061184d565b60405180910390f35b61027661087c565b60405161028391906116d5565b60405180910390f35b6102946108a0565b6040516102a1919061170b565b60405180910390f35b6102c460048036038101906102bf91906114e9565b610932565b6040516102d191906116f0565b60405180910390f35b6102f460048036038101906102ef91906114e9565b610a0f565b60405161030191906116f0565b60405180910390f35b610324600480360381019061031f9190611435565b610a26565b005b610340600480360381019061033b919061145e565b610c68565b60405161034d919061184d565b60405180910390f35b610370600480360381019061036b9190611435565b610cef565b005b6060600580546103819061197d565b80601f01602080910402602001604051908101604052809291908181526020018280546103ad9061197d565b80156103fa5780601f106103cf576101008083540402835291602001916103fa565b820191906000526020600020905b8154815290600101906020018083116103dd57829003601f168201915b5050505050905090565b6000610411338484610f2f565b6001905092915050565b600073ffffffffffffffffffffffffffffffffffffffff1660008054906101000a900473ffffffffffffffffffffffffffffffffffffffff1673ffffffffffffffffffffffffffffffffffffffff16146104aa576040517f08c379a00000000000000000000000000000000000000000000000000000000081526004016104a19061180d565b60405180910390fd5b806000806101000a81548173ffffffffffffffffffffffffffffffffffffffff021916908373ffffffffffffffffffffffffffffffffffffffff16021790555050565b6000600454905090565b60006105048484846110fa565b6000600360008673ffffffffffffffffffffffffffffffffffffffff1673ffffffffffffffffffffffffffffffffffffffff16815260200190815260200160002060003373ffffffffffffffffffffffffffffffffffffffff1673ffffffffffffffffffffffffffffffffffffffff168152602001908152602001600020549050828110156105c8576040517f08c379a00000000000000000000000000000000000000000000000000000000081526004016105bf906117ad565b60405180910390fd5b6105d58533858403610f2f565b60019150509392505050565b6000600760009054906101000a900460ff16905090565b600061068c338484600360003373ffffffffffffffffffffffffffffffffffffffff1673ffffffffffffffffffffffffffffffffffffffff16815260200190815260200160002060008873ffffffffffffffffffffffffffffffffffffffff1673ffffffffffffffffffffffffffffffffffffffff16815260200190815260200160002054610687919061189f565b610f2f565b6001905092915050565b6040518060400160405280600c81526020017f46616e734f6e6c79436f696e0000000000000000000000000000000000000000815250600590805190602001906106e1929190611368565b506040518060400160405280600381526020017f464f4300000000000000000000000000000000000000000000000000000000008152506006908051906020019061072d929190611368565b506012600760006101000a81548160ff021916908360ff1602179055506b033b2e3c9fd0803ce8000000600481905550600454600260003373ffffffffffffffffffffffffffffffffffffffff1673ffffffffffffffffffffffffffffffffffffffff168152602001908152602001600020819055503373ffffffffffffffffffffffffffffffffffffffff16600073ffffffffffffffffffffffffffffffffffffffff167fddf252ad1be2c89b69c2b068fc378daa952ba7f163c4a11628f55a4df523b3ef600454604051610803919061184d565b60405180910390a3565b600160009054906101000a900473ffffffffffffffffffffffffffffffffffffffff1681565b6000600260008373ffffffffffffffffffffffffffffffffffffffff1673ffffffffffffffffffffffffffffffffffffffff168152602001908152602001600020549050919050565b60008054906101000a900473ffffffffffffffffffffffffffffffffffffffff1681565b6060600680546108af9061197d565b80601f01602080910402602001604051908101604052809291908181526020018280546108db9061197d565b80156109285780601f106108fd57610100808354040283529160200191610928565b820191906000526020600020905b81548152906001019060200180831161090b57829003601f168201915b5050505050905090565b600080600360003373ffffffffffffffffffffffffffffffffffffffff1673ffffffffffffffffffffffffffffffffffffffff16815260200190815260200160002060008573ffffffffffffffffffffffffffffffffffffffff1673ffffffffffffffffffffffffffffffffffffffff168152602001908152602001600020549050828110156109f7576040517f08c379a00000000000000000000000000000000000000000000000000000000081526004016109ee9061182d565b60405180910390fd5b610a043385858403610f2f565b600191505092915050565b6000610a1c3384846110fa565b6001905092915050565b60008054906101000a900473ffffffffffffffffffffffffffffffffffffffff1673ffffffffffffffffffffffffffffffffffffffff163373ffffffffffffffffffffffffffffffffffffffff1614610ab4576040517f08c379a0000000000000000000000000000000000000000000000000000000008152600401610aab9061178d565b60405180910390fd5b60008054906101000a900473ffffffffffffffffffffffffffffffffffffffff1673ffffffffffffffffffffffffffffffffffffffff168173ffffffffffffffffffffffffffffffffffffffff161415610b0d57600080fd5b600160009054906101000a900473ffffffffffffffffffffffffffffffffffffffff1673ffffffffffffffffffffffffffffffffffffffff168173ffffffffffffffffffffffffffffffffffffffff161415610b6857600080fd5b600073ffffffffffffffffffffffffffffffffffffffff168173ffffffffffffffffffffffffffffffffffffffff161415610ba257600080fd5b6000600160009054906101000a900473ffffffffffffffffffffffffffffffffffffffff16905081600160006101000a81548173ffffffffffffffffffffffffffffffffffffffff021916908373ffffffffffffffffffffffffffffffffffffffff1602179055508173ffffffffffffffffffffffffffffffffffffffff168173ffffffffffffffffffffffffffffffffffffffff167f034ab062c9c6c8ddd60650a40372b1d413588174682d4ca1a4e53aa37589ab2d60405160405180910390a35050565b6000600360008473ffffffffffffffffffffffffffffffffffffffff1673ffffffffffffffffffffffffffffffffffffffff16815260200190815260200160002060008373ffffffffffffffffffffffffffffffffffffffff1673ffffffffffffffffffffffffffffffffffffffff16815260200190815260200160002054905092915050565b60008054906101000a900473ffffffffffffffffffffffffffffffffffffffff1673ffffffffffffffffffffffffffffffffffffffff163373ffffffffffffffffffffffffffffffffffffffff1614610d7d576040517f08c379a0000000000000000000000000000000000000000000000000000000008152600401610d749061178d565b60405180910390fd5b60008054906101000a900473ffffffffffffffffffffffffffffffffffffffff1673ffffffffffffffffffffffffffffffffffffffff168173ffffffffffffffffffffffffffffffffffffffff161415610dd657600080fd5b600160009054906101000a900473ffffffffffffffffffffffffffffffffffffffff1673ffffffffffffffffffffffffffffffffffffffff168173ffffffffffffffffffffffffffffffffffffffff161415610e3157600080fd5b600073ffffffffffffffffffffffffffffffffffffffff168173ffffffffffffffffffffffffffffffffffffffff161415610e6b57600080fd5b60008060009054906101000a900473ffffffffffffffffffffffffffffffffffffffff169050816000806101000a81548173ffffffffffffffffffffffffffffffffffffffff021916908373ffffffffffffffffffffffffffffffffffffffff1602179055508173ffffffffffffffffffffffffffffffffffffffff168173ffffffffffffffffffffffffffffffffffffffff167f9aecf86140d81442289f667eb72e1202a8fbb3478a686659952e145e8531965660405160405180910390a35050565b600073ffffffffffffffffffffffffffffffffffffffff168373ffffffffffffffffffffffffffffffffffffffff161415610f9f576040517f08c379a0000000000000000000000000000000000000000000000000000000008152600401610f96906117ed565b60405180910390fd5b600073ffffffffffffffffffffffffffffffffffffffff168273ffffffffffffffffffffffffffffffffffffffff16141561100f576040517f08c379a00000000000000000000000000000000000000000000000000000000081526004016110069061174d565b60405180910390fd5b80600360008573ffffffffffffffffffffffffffffffffffffffff1673ffffffffffffffffffffffffffffffffffffffff16815260200190815260200160002060008473ffffffffffffffffffffffffffffffffffffffff1673ffffffffffffffffffffffffffffffffffffffff168152602001908152602001600020819055508173ffffffffffffffffffffffffffffffffffffffff168373ffffffffffffffffffffffffffffffffffffffff167f8c5be1e5ebec7d5bd14f71427d1e84f3dd0314c0f7b2291e5b200ac8c7c3b925836040516110ed919061184d565b60405180910390a3505050565b600073ffffffffffffffffffffffffffffffffffffffff168373ffffffffffffffffffffffffffffffffffffffff16141561116a576040517f08c379a0000000000000000000000000000000000000000000000000000000008152600401611161906117cd565b60405180910390fd5b600073ffffffffffffffffffffffffffffffffffffffff168273ffffffffffffffffffffffffffffffffffffffff1614156111da576040517f08c379a00000000000000000000000000000000000000000000000000000000081526004016111d19061172d565b60405180910390fd5b6000600260008573ffffffffffffffffffffffffffffffffffffffff1673ffffffffffffffffffffffffffffffffffffffff16815260200190815260200160002054905081811015611261576040517f08c379a00000000000000000000000000000000000000000000000000000000081526004016112589061176d565b60405180910390fd5b818103600260008673ffffffffffffffffffffffffffffffffffffffff1673ffffffffffffffffffffffffffffffffffffffff1681526020019081526020016000208190555081600260008573ffffffffffffffffffffffffffffffffffffffff1673ffffffffffffffffffffffffffffffffffffffff16815260200190815260200160002060008282546112f6919061189f565b925050819055508273ffffffffffffffffffffffffffffffffffffffff168473ffffffffffffffffffffffffffffffffffffffff167fddf252ad1be2c89b69c2b068fc378daa952ba7f163c4a11628f55a4df523b3ef8460405161135a919061184d565b60405180910390a350505050565b8280546113749061197d565b90600052602060002090601f01602090048101928261139657600085556113dd565b82601f106113af57805160ff19168380011785556113dd565b828001600101855582156113dd579182015b828111156113dc5782518255916020019190600101906113c1565b5b5090506113ea91906113ee565b5090565b5b808211156114075760008160009055506001016113ef565b5090565b60008135905061141a81611cbf565b92915050565b60008135905061142f81611cd6565b92915050565b60006020828403121561144757600080fd5b60006114558482850161140b565b91505092915050565b6000806040838503121561147157600080fd5b600061147f8582860161140b565b92505060206114908582860161140b565b9150509250929050565b6000806000606084860312156114af57600080fd5b60006114bd8682870161140b565b93505060206114ce8682870161140b565b92505060406114df86828701611420565b9150509250925092565b600080604083850312156114fc57600080fd5b600061150a8582860161140b565b925050602061151b85828601611420565b9150509250929050565b61152e816118f5565b82525050565b61153d81611907565b82525050565b600061154e82611883565b611558818561188e565b935061156881856020860161194a565b61157181611a0d565b840191505092915050565b600061158960238361188e565b915061159482611a1e565b604082019050919050565b60006115ac60228361188e565b91506115b782611a6d565b604082019050919050565b60006115cf60268361188e565b91506115da82611abc565b604082019050919050565b60006115f2602c8361188e565b91506115fd82611b0b565b604082019050919050565b600061161560288361188e565b915061162082611b5a565b604082019050919050565b600061163860258361188e565b915061164382611ba9565b604082019050919050565b600061165b60248361188e565b915061166682611bf8565b604082019050919050565b600061167e60128361188e565b915061168982611c47565b602082019050919050565b60006116a160258361188e565b91506116ac82611c70565b604082019050919050565b6116c081611933565b82525050565b6116cf8161193d565b82525050565b60006020820190506116ea6000830184611525565b92915050565b60006020820190506117056000830184611534565b92915050565b600060208201905081810360008301526117258184611543565b905092915050565b600060208201905081810360008301526117468161157c565b9050919050565b600060208201905081810360008301526117668161159f565b9050919050565b60006020820190508181036000830152611786816115c2565b9050919050565b600060208201905081810360008301526117a6816115e5565b9050919050565b600060208201905081810360008301526117c681611608565b9050919050565b600060208201905081810360008301526117e68161162b565b9050919050565b600060208201905081810360008301526118068161164e565b9050919050565b6000602082019050818103600083015261182681611671565b9050919050565b6000602082019050818103600083015261184681611694565b9050919050565b600060208201905061186260008301846116b7565b92915050565b600060208201905061187d60008301846116c6565b92915050565b600081519050919050565b600082825260208201905092915050565b60006118aa82611933565b91506118b583611933565b9250827fffffffffffffffffffffffffffffffffffffffffffffffffffffffffffffffff038211156118ea576118e96119af565b5b828201905092915050565b600061190082611913565b9050919050565b60008115159050919050565b600073ffffffffffffffffffffffffffffffffffffffff82169050919050565b6000819050919050565b600060ff82169050919050565b60005b8381101561196857808201518184015260208101905061194d565b83811115611977576000848401525b50505050565b6000600282049050600182168061199557607f821691505b602082108114156119a9576119a86119de565b5b50919050565b7f4e487b7100000000000000000000000000000000000000000000000000000000600052601160045260246000fd5b7f4e487b7100000000000000000000000000000000000000000000000000000000600052602260045260246000fd5b6000601f19601f8301169050919050565b7f45524332303a207472616e7366657220746f20746865207a65726f206164647260008201527f6573730000000000000000000000000000000000000000000000000000000000602082015250565b7f45524332303a20617070726f766520746f20746865207a65726f20616464726560008201527f7373000000000000000000000000000000000000000000000000000000000000602082015250565b7f45524332303a207472616e7366657220616d6f756e742065786365656473206260008201527f616c616e63650000000000000000000000000000000000000000000000000000602082015250565b7f4f6e6c79206f776e657220697320616c6c6f77656420746f20706572666f726d60008201527f207468697320616374696f6e0000000000000000000000000000000000000000602082015250565b7f45524332303a207472616e7366657220616d6f756e742065786365656473206160008201527f6c6c6f77616e6365000000000000000000000000000000000000000000000000602082015250565b7f45524332303a207472616e736665722066726f6d20746865207a65726f20616460008201527f6472657373000000000000000000000000000000000000000000000000000000602082015250565b7f45524332303a20617070726f76652066726f6d20746865207a65726f2061646460008201527f7265737300000000000000000000000000000000000000000000000000000000602082015250565b7f416c726561647920696e6974616c697a65640000000000000000000000000000600082015250565b7f45524332303a2064656372656173656420616c6c6f77616e63652062656c6f7760008201527f207a65726f000000000000000000000000000000000000000000000000000000602082015250565b611cc8816118f5565b8114611cd357600080fd5b50565b611cdf81611933565b8114611cea57600080fd5b5056fea264697066735822122040ccb440b2d256f53278a84c0143985a1d4470107765b6530d9f5e99fbddd11764736f6c63430008010033",
  "immutableReferences": {},
  "source": "pragma solidity ^0.8.1;\r\nlibrary SafeMath\r\n{\r\n\r\n  function mul(uint256 a, uint256 b) internal pure returns (uint256)\r\n    \t{\r\n\t\tuint256 c = a * b;\r\n\t\tassert(a == 0 || c / a == b);\r\n\r\n\t\treturn c;\r\n  \t}\r\n\r\n  \tfunction div(uint256 a, uint256 b) internal pure returns (uint256)\r\n\t{\r\n\t\tuint256 c = a / b;\r\n\r\n\t\treturn c;\r\n  \t}\r\n\r\n  \tfunction sub(uint256 a, uint256 b) internal pure returns (uint256)\r\n\t{\r\n\t\tassert(b <= a);\r\n\r\n\t\treturn a - b;\r\n  \t}\r\n\r\n  \tfunction add(uint256 a, uint256 b) internal pure returns (uint256)\r\n\t{\r\n\t\tuint256 c = a + b;\r\n\t\tassert(c >= a);\r\n\r\n\t\treturn c;\r\n  \t}\r\n}\r\n\r\ncontract OwnerHelper\r\n{\r\n  \taddress public owner;\r\n    address public manager;\r\n\r\n  \tevent ChangeOwner(address indexed _from, address indexed _to);\r\n    event ChangeManager(address indexed _from, address indexed _to);\r\n\r\n    function setOwner(address to) public {\r\n        require(owner == address(0), \"Already initalized\");\r\n        owner = to;\r\n    }\r\n  \tmodifier onlyOwner\r\n\t{\r\n\t\trequire(msg.sender == owner, \"Only owner is allowed to perform this action\");\r\n\t\t_;\r\n  \t}\r\n  \t\r\n    modifier onlyManager\r\n    {\r\n        require(msg.sender == manager);\r\n        _;\r\n    }\r\n  \t\r\n  \tfunction transferOwnership(address _to) onlyOwner public\r\n  \t{\r\n    \trequire(_to != owner);\r\n        require(_to != manager);\r\n    \trequire(_to != address(0x0));\r\n\r\n        address from = owner;\r\n      \towner = _to;\r\n  \t    \r\n      \temit ChangeOwner(from, _to);\r\n  \t}\r\n\r\n    function transferManager(address _to) onlyOwner public\r\n    {\r\n        require(_to != owner);\r\n        require(_to != manager);\r\n        require(_to != address(0x0));\r\n        \r\n        address from = manager;\r\n        manager = _to;\r\n        \r\n        emit ChangeManager(from, _to);\r\n    }\r\n}\r\n\r\ninterface IERC20 {\r\n    /**\r\n     * @dev Returns the amount of tokens in existence.\r\n     */\r\n    function totalSupply() external view returns (uint256);\r\n\r\n    /**\r\n     * @dev Returns the amount of tokens owned by `account`.\r\n     */\r\n    function balanceOf(address account) external view returns (uint256);\r\n\r\n    /**\r\n     * @dev Moves `amount` tokens from the caller's account to `recipient`.\r\n     *\r\n     * Returns a boolean value indicating whether the operation succeeded.\r\n     *\r\n     * Emits a {Transfer} event.\r\n     */\r\n    function transfer(address recipient, uint256 amount) external returns (bool);\r\n\r\n    /**\r\n     * @dev Returns the remaining number of tokens that `spender` will be\r\n     * allowed to spend on behalf of `owner` through {transferFrom}. This is\r\n     * zero by default.\r\n     *\r\n     * This value changes when {approve} or {transferFrom} are called.\r\n     */\r\n    function allowance(address owner, address spender) external view returns (uint256);\r\n\r\n    /**\r\n     * @dev Sets `amount` as the allowance of `spender` over the caller's tokens.\r\n     *\r\n     * Returns a boolean value indicating whether the operation succeeded.\r\n     *\r\n     * IMPORTANT: Beware that changing an allowance with this method brings the risk\r\n     * that someone may use both the old and the new allowance by unfortunate\r\n     * transaction ordering. One possible solution to mitigate this race\r\n     * condition is to first reduce the spender's allowance to 0 and set the\r\n     * desired value afterwards:\r\n     * https://github.com/ethereum/EIPs/issues/20#issuecomment-263524729\r\n     *\r\n     * Emits an {Approval} event.\r\n     */\r\n    function approve(address spender, uint256 amount) external returns (bool);\r\n\r\n    /**\r\n     * @dev Moves `amount` tokens from `sender` to `recipient` using the\r\n     * allowance mechanism. `amount` is then deducted from the caller's\r\n     * allowance.\r\n     *\r\n     * Returns a boolean value indicating whether the operation succeeded.\r\n     *\r\n     * Emits a {Transfer} event.\r\n     */\r\n    function transferFrom(\r\n        address sender,\r\n        address recipient,\r\n        uint256 amount\r\n    ) external returns (bool);\r\n\r\n    /**\r\n     * @dev Emitted when `value` tokens are moved from one account (`from`) to\r\n     * another (`to`).\r\n     *\r\n     * Note that `value` may be zero.\r\n     */\r\n    event Transfer(address indexed from, address indexed to, uint256 value);\r\n\r\n    /**\r\n     * @dev Emitted when the allowance of a `spender` for an `owner` is set by\r\n     * a call to {approve}. `value` is the new allowance.\r\n     */\r\n    event Approval(address indexed owner, address indexed spender, uint256 value);\r\n}\r\n\r\nlibrary Address {\r\n    function isContract(address account) internal view returns (bool) {   // distinction for contract\r\n        // According to EIP-1052, 0x0 is the value returned for not-yet created accounts\r\n        // and 0xc5d2460186f7233c927e7db2dcc703c0e500b653ca82273b7bfad8045d85a470 is returned\r\n        // for accounts without code, i.e. `keccak256('')`\r\n        bytes32 codehash;\r\n        bytes32 accountHash = 0xc5d2460186f7233c927e7db2dcc703c0e500b653ca82273b7bfad8045d85a470;\r\n        // solhint-disable-next-line no-inline-assembly\r\n        assembly { codehash := extcodehash(account) }\r\n        return (codehash != accountHash && codehash != 0x0);\r\n    }\r\n    function sendValue(address payable recipient, uint256 amount) internal {\r\n        require(address(this).balance >= amount, \"Address: insufficient balance\");\r\n\r\n        // solhint-disable-next-line avoid-low-level-calls, avoid-call-value\r\n        (bool success, ) = recipient.call{ value: amount }(\"\");\r\n        require(success, \"Address: unable to send value, recipient may have reverted\");\r\n    }\r\n    function functionCall(address target, bytes memory data) internal returns (bytes memory) {\r\n      return functionCall(target, data, \"Address: low-level call failed\");\r\n    }\r\n    function functionCall(address target, bytes memory data, string memory errorMessage) internal returns (bytes memory) {\r\n        return _functionCallWithValue(target, data, 0, errorMessage);\r\n    }\r\n    function functionCallWithValue(address target, bytes memory data, uint256 value) internal returns (bytes memory) {\r\n        return functionCallWithValue(target, data, value, \"Address: low-level call with value failed\");\r\n    }\r\n    function functionCallWithValue(address target, bytes memory data, uint256 value, string memory errorMessage) internal returns (bytes memory) {\r\n        require(address(this).balance >= value, \"Address: insufficient balance for call\");\r\n        return _functionCallWithValue(target, data, value, errorMessage);\r\n    }\r\n\r\n    function _functionCallWithValue(address target, bytes memory data, uint256 weiValue, string memory errorMessage) private returns (bytes memory) {\r\n        require(isContract(target), \"Address: call to non-contract\");\r\n\r\n        // solhint-disable-next-line avoid-low-level-calls\r\n        (bool success, bytes memory returndata) = target.call{ value: weiValue }(data);\r\n        if (success) {\r\n            return returndata;\r\n        } else {\r\n            // Look for revert reason and bubble it up if present\r\n            if (returndata.length > 0) {\r\n                // The easiest way to bubble the revert reason is using memory via assembly\r\n\r\n                // solhint-disable-next-line no-inline-assembly\r\n                assembly {\r\n                    let returndata_size := mload(returndata)\r\n                    revert(add(32, returndata), returndata_size)\r\n                }\r\n            } else {\r\n                revert(errorMessage);\r\n            }\r\n        }\r\n    }\r\n}\r\n\r\ncontract FansOnlyCoin is IERC20, OwnerHelper {\r\n    using SafeMath for uint256;\r\n    using Address for address;\r\n    mapping (address => uint256) private _tOwned; //owned our token amount for token holder\r\n    mapping (address => mapping (address => uint256)) private _allowances;\r\n\r\n    uint256 private _tTotal; // our total token amount\r\n\r\n    string private _name;\r\n    string private _symbol;\r\n    uint8 private _decimals;\r\n\r\n    /**\r\n     * @dev Sets the values for {name} and {symbol}.\r\n     *\r\n     * The default value of {decimals} is 18. To select a different value for\r\n     * {decimals} you should overload it.\r\n     *\r\n     * All two of these values are immutable: they can only be set once during\r\n     * construction.\r\n     */\r\n    function constructor1() public {\r\n        _name = \"FansOnlyCoin\";\r\n        _symbol = \"FOC\";\r\n        _decimals = 18;\r\n        _tTotal = 10**9 * 10**18; // our total token amount\r\n        _tOwned[msg.sender] = _tTotal;\r\n        emit Transfer(address(0), msg.sender, _tTotal);\r\n    }\r\n\r\n    /**\r\n     * @dev Returns the name of the token.\r\n     */\r\n    function name() public view returns (string memory) {\r\n        return _name;\r\n    }\r\n\r\n    /**\r\n     * @dev Returns the symbol of the token, usually a shorter version of the\r\n     * name.\r\n     */\r\n    function symbol() public view returns (string memory) {\r\n        return _symbol;\r\n    }\r\n\r\n    /**\r\n     * @dev Returns the number of decimals used to get its user representation.\r\n     * For example, if `decimals` equals `2`, a balance of `505` tokens should\r\n     * be displayed to a user as `5.05` (`505 / 10 ** 2`).\r\n     *\r\n     * Tokens usually opt for a value of 18, imitating the relationship between\r\n     * Ether and Wei. This is the value {ERC20} uses, unless this function is\r\n     * overridden;\r\n     *\r\n     * NOTE: This information is only used for _display_ purposes: it in\r\n     * no way affects any of the arithmetic of the contract, including\r\n     * {IERC20-balanceOf} and {IERC20-transfer}.\r\n     */\r\n    function decimals() public view returns (uint8) {\r\n        return _decimals;\r\n    }\r\n\r\n    /**\r\n     * @dev See {IERC20-totalSupply}.\r\n     */\r\n    function totalSupply() public view virtual override returns (uint256) {\r\n        return _tTotal;\r\n    }\r\n\r\n    /**\r\n     * @dev See {IERC20-balanceOf}.\r\n     */\r\n    function balanceOf(address account) public view override returns (uint256) {\r\n        return _tOwned[account];\r\n    }\r\n\r\n    /**\r\n     * @dev See {IERC20-transfer}.\r\n     *\r\n     * Requirements:\r\n     *\r\n     * - `recipient` cannot be the zero address.\r\n     * - the caller must have a balance of at least `amount`.\r\n     */\r\n    function transfer(address recipient, uint256 amount) public  override returns (bool) {\r\n        _transfer(msg.sender, recipient, amount);\r\n        return true;\r\n    }\r\n\r\n    /**\r\n     * @dev See {IERC20-allowance}.\r\n     */\r\n    function allowance(address owner, address spender) public view  override returns (uint256) {\r\n        return _allowances[owner][spender];\r\n    }\r\n\r\n    /**\r\n     * @dev See {IERC20-approve}.\r\n     *\r\n     * Requirements:\r\n     *\r\n     * - `spender` cannot be the zero address.\r\n     */\r\n    function approve(address spender, uint256 amount) public  override returns (bool) {\r\n        _approve(msg.sender, spender, amount);\r\n        return true;\r\n    }\r\n\r\n    /**\r\n     * @dev See {IERC20-transferFrom}.\r\n     *\r\n     * Emits an {Approval} event indicating the updated allowance. This is not\r\n     * required by the EIP. See the note at the beginning of {ERC20}.\r\n     *\r\n     * Requirements:\r\n     *\r\n     * - `sender` and `recipient` cannot be the zero address.\r\n     * - `sender` must have a balance of at least `amount`.\r\n     * - the caller must have allowance for ``sender``'s tokens of at least\r\n     * `amount`.\r\n     */\r\n    function transferFrom(\r\n        address sender,\r\n        address recipient,\r\n        uint256 amount\r\n    ) public override returns (bool) {\r\n        _transfer(sender, recipient, amount);\r\n\r\n        uint256 currentAllowance = _allowances[sender][msg.sender];\r\n        require(currentAllowance >= amount, \"ERC20: transfer amount exceeds allowance\");\r\n        unchecked {\r\n            _approve(sender, msg.sender, currentAllowance - amount);\r\n        }\r\n\r\n        return true;\r\n    }\r\n\r\n    /**\r\n     * @dev Atomically increases the allowance granted to `spender` by the caller.\r\n     *\r\n     * This is an alternative to {approve} that can be used as a mitigation for\r\n     * problems described in {IERC20-approve}.\r\n     *\r\n     * Emits an {Approval} event indicating the updated allowance.\r\n     *\r\n     * Requirements:\r\n     *\r\n     * - `spender` cannot be the zero address.\r\n     */\r\n    function increaseAllowance(address spender, uint256 addedValue) public returns (bool) {\r\n        _approve(msg.sender, spender, _allowances[msg.sender][spender] + addedValue);\r\n        return true;\r\n    }\r\n\r\n    /**\r\n     * @dev Atomically decreases the allowance granted to `spender` by the caller.\r\n     *\r\n     * This is an alternative to {approve} that can be used as a mitigation for\r\n     * problems described in {IERC20-approve}.\r\n     *\r\n     * Emits an {Approval} event indicating the updated allowance.\r\n     *\r\n     * Requirements:\r\n     *\r\n     * - `spender` cannot be the zero address.\r\n     * - `spender` must have allowance for the caller of at least\r\n     * `subtractedValue`.\r\n     */\r\n    function decreaseAllowance(address spender, uint256 subtractedValue) public returns (bool) {\r\n        uint256 currentAllowance = _allowances[msg.sender][spender];\r\n        require(currentAllowance >= subtractedValue, \"ERC20: decreased allowance below zero\");\r\n        unchecked {\r\n            _approve(msg.sender, spender, currentAllowance - subtractedValue);\r\n        }\r\n\r\n        return true;\r\n    }\r\n\r\n    /**\r\n     * @dev Moves `amount` of tokens from `sender` to `recipient`.\r\n     *\r\n     * This internal function is equivalent to {transfer}, and can be used to\r\n     * e.g. implement automatic token fees, slashing mechanisms, etc.\r\n     *\r\n     * Emits a {Transfer} event.\r\n     *\r\n     * Requirements:\r\n     *\r\n     * - `sender` cannot be the zero address.\r\n     * - `recipient` cannot be the zero address.\r\n     * - `sender` must have a balance of at least `amount`.\r\n     */\r\n    function _transfer(\r\n        address sender,\r\n        address recipient,\r\n        uint256 amount\r\n    ) internal {\r\n        require(sender != address(0), \"ERC20: transfer from the zero address\");\r\n        require(recipient != address(0), \"ERC20: transfer to the zero address\");\r\n\r\n\r\n        uint256 senderBalance = _tOwned[sender];\r\n        require(senderBalance >= amount, \"ERC20: transfer amount exceeds balance\");\r\n        unchecked {\r\n            _tOwned[sender] = senderBalance - amount;\r\n        }\r\n        _tOwned[recipient] += amount;\r\n\r\n        emit Transfer(sender, recipient, amount);\r\n    }\r\n    /**\r\n     * @dev Sets `amount` as the allowance of `spender` over the `owner` s tokens.\r\n     *\r\n     * This internal function is equivalent to `approve`, and can be used to\r\n     * e.g. set automatic allowances for certain subsystems, etc.\r\n     *\r\n     * Emits an {Approval} event.\r\n     *\r\n     * Requirements:\r\n     *\r\n     * - `owner` cannot be the zero address.\r\n     * - `spender` cannot be the zero address.\r\n     */\r\n    function _approve(\r\n        address owner,\r\n        address spender,\r\n        uint256 amount\r\n    ) internal {\r\n        require(owner != address(0), \"ERC20: approve from the zero address\");\r\n        require(spender != address(0), \"ERC20: approve to the zero address\");\r\n\r\n        _allowances[owner][spender] = amount;\r\n        emit Approval(owner, spender, amount);\r\n    }\r\n}",
  "sourcePath": "E:\\Blockchain example\\mycontract_upgrade\\contracts\\FansOnlyCoin.sol",
  "compiler": {
    "name": "solc",
    "version": "0.8.1+commit.df193b15.Emscripten.clang"
  },
  "schemaVersion": "3.4.3",
  "updatedAt": "2021-11-09T11:50:54.490Z",
  "networkType": "ethereum",
  "devdoc": {
    "kind": "dev",
    "methods": {
      "allowance(address,address)": {
        "details": "See {IERC20-allowance}."
      },
      "approve(address,uint256)": {
        "details": "See {IERC20-approve}. Requirements: - `spender` cannot be the zero address."
      },
      "balanceOf(address)": {
        "details": "See {IERC20-balanceOf}."
      },
      "constructor1()": {
        "details": "Sets the values for {name} and {symbol}. The default value of {decimals} is 18. To select a different value for {decimals} you should overload it. All two of these values are immutable: they can only be set once during construction."
      },
      "decimals()": {
        "details": "Returns the number of decimals used to get its user representation. For example, if `decimals` equals `2`, a balance of `505` tokens should be displayed to a user as `5.05` (`505 / 10 ** 2`). Tokens usually opt for a value of 18, imitating the relationship between Ether and Wei. This is the value {ERC20} uses, unless this function is overridden; NOTE: This information is only used for _display_ purposes: it in no way affects any of the arithmetic of the contract, including {IERC20-balanceOf} and {IERC20-transfer}."
      },
      "decreaseAllowance(address,uint256)": {
        "details": "Atomically decreases the allowance granted to `spender` by the caller. This is an alternative to {approve} that can be used as a mitigation for problems described in {IERC20-approve}. Emits an {Approval} event indicating the updated allowance. Requirements: - `spender` cannot be the zero address. - `spender` must have allowance for the caller of at least `subtractedValue`."
      },
      "increaseAllowance(address,uint256)": {
        "details": "Atomically increases the allowance granted to `spender` by the caller. This is an alternative to {approve} that can be used as a mitigation for problems described in {IERC20-approve}. Emits an {Approval} event indicating the updated allowance. Requirements: - `spender` cannot be the zero address."
      },
      "name()": {
        "details": "Returns the name of the token."
      },
      "symbol()": {
        "details": "Returns the symbol of the token, usually a shorter version of the name."
      },
      "totalSupply()": {
        "details": "See {IERC20-totalSupply}."
      },
      "transfer(address,uint256)": {
        "details": "See {IERC20-transfer}. Requirements: - `recipient` cannot be the zero address. - the caller must have a balance of at least `amount`."
      },
      "transferFrom(address,address,uint256)": {
        "details": "See {IERC20-transferFrom}. Emits an {Approval} event indicating the updated allowance. This is not required by the EIP. See the note at the beginning of {ERC20}. Requirements: - `sender` and `recipient` cannot be the zero address. - `sender` must have a balance of at least `amount`. - the caller must have allowance for ``sender``'s tokens of at least `amount`."
      }
    },
    "version": 1
  },
  "userdoc": {
    "kind": "user",
    "methods": {},
    "version": 1
  }
}